{
  "_format": "hh-sol-artifact-1",
  "contractName": "PostNFT",
  "sourceName": "contracts/PostNFT.sol",
  "abi": [
    {
      "inputs": [],
      "stateMutability": "nonpayable",
      "type": "constructor"
    },
    {
      "anonymous": false,
      "inputs": [
        {
          "indexed": true,
          "internalType": "address",
          "name": "owner",
          "type": "address"
        },
        {
          "indexed": true,
          "internalType": "address",
          "name": "approved",
          "type": "address"
        },
        {
          "indexed": true,
          "internalType": "uint256",
          "name": "tokenId",
          "type": "uint256"
        }
      ],
      "name": "Approval",
      "type": "event"
    },
    {
      "anonymous": false,
      "inputs": [
        {
          "indexed": true,
          "internalType": "address",
          "name": "owner",
          "type": "address"
        },
        {
          "indexed": true,
          "internalType": "address",
          "name": "operator",
          "type": "address"
        },
        {
          "indexed": false,
          "internalType": "bool",
          "name": "approved",
          "type": "bool"
        }
      ],
      "name": "ApprovalForAll",
      "type": "event"
    },
    {
      "anonymous": false,
      "inputs": [
        {
          "indexed": true,
          "internalType": "address",
          "name": "from",
          "type": "address"
        },
        {
          "indexed": true,
          "internalType": "address",
          "name": "to",
          "type": "address"
        },
        {
          "indexed": true,
          "internalType": "uint256",
          "name": "tokenId",
          "type": "uint256"
        }
      ],
      "name": "Transfer",
      "type": "event"
    },
    {
      "inputs": [
        {
          "internalType": "address",
          "name": "to",
          "type": "address"
        },
        {
          "internalType": "uint256",
          "name": "tokenId",
          "type": "uint256"
        }
      ],
      "name": "approve",
      "outputs": [],
      "stateMutability": "nonpayable",
      "type": "function"
    },
    {
      "inputs": [
        {
          "internalType": "address",
          "name": "owner",
          "type": "address"
        }
      ],
      "name": "balanceOf",
      "outputs": [
        {
          "internalType": "uint256",
          "name": "",
          "type": "uint256"
        }
      ],
      "stateMutability": "view",
      "type": "function"
    },
    {
      "inputs": [
        {
          "internalType": "uint256",
          "name": "tokenId",
          "type": "uint256"
        }
      ],
      "name": "getApproved",
      "outputs": [
        {
          "internalType": "address",
          "name": "",
          "type": "address"
        }
      ],
      "stateMutability": "view",
      "type": "function"
    },
    {
      "inputs": [
        {
          "internalType": "uint256",
          "name": "tokenId",
          "type": "uint256"
        }
      ],
      "name": "getPost",
      "outputs": [
        {
          "components": [
            {
              "internalType": "string",
              "name": "contentHash",
              "type": "string"
            },
            {
              "internalType": "address",
              "name": "author",
              "type": "address"
            },
            {
              "internalType": "uint256",
              "name": "timestamp",
              "type": "uint256"
            },
            {
              "internalType": "string",
              "name": "metadataURI",
              "type": "string"
            }
          ],
          "internalType": "struct PostNFT.Post",
          "name": "",
          "type": "tuple"
        }
      ],
      "stateMutability": "view",
      "type": "function"
    },
    {
      "inputs": [
        {
          "internalType": "address",
          "name": "owner",
          "type": "address"
        },
        {
          "internalType": "address",
          "name": "operator",
          "type": "address"
        }
      ],
      "name": "isApprovedForAll",
      "outputs": [
        {
          "internalType": "bool",
          "name": "",
          "type": "bool"
        }
      ],
      "stateMutability": "view",
      "type": "function"
    },
    {
      "inputs": [
        {
          "internalType": "address",
          "name": "to",
          "type": "address"
        },
        {
          "internalType": "string",
          "name": "contentHash",
          "type": "string"
        },
        {
          "internalType": "string",
          "name": "metadataURI",
          "type": "string"
        }
      ],
      "name": "mintPost",
      "outputs": [
        {
          "internalType": "uint256",
          "name": "",
          "type": "uint256"
        }
      ],
      "stateMutability": "nonpayable",
      "type": "function"
    },
    {
      "inputs": [],
      "name": "name",
      "outputs": [
        {
          "internalType": "string",
          "name": "",
          "type": "string"
        }
      ],
      "stateMutability": "view",
      "type": "function"
    },
    {
      "inputs": [
        {
          "internalType": "uint256",
          "name": "tokenId",
          "type": "uint256"
        }
      ],
      "name": "ownerOf",
      "outputs": [
        {
          "internalType": "address",
          "name": "",
          "type": "address"
        }
      ],
      "stateMutability": "view",
      "type": "function"
    },
    {
      "inputs": [
        {
          "internalType": "uint256",
          "name": "",
          "type": "uint256"
        }
      ],
      "name": "posts",
      "outputs": [
        {
          "internalType": "string",
          "name": "contentHash",
          "type": "string"
        },
        {
          "internalType": "address",
          "name": "author",
          "type": "address"
        },
        {
          "internalType": "uint256",
          "name": "timestamp",
          "type": "uint256"
        },
        {
          "internalType": "string",
          "name": "metadataURI",
          "type": "string"
        }
      ],
      "stateMutability": "view",
      "type": "function"
    },
    {
      "inputs": [
        {
          "internalType": "address",
          "name": "from",
          "type": "address"
        },
        {
          "internalType": "address",
          "name": "to",
          "type": "address"
        },
        {
          "internalType": "uint256",
          "name": "tokenId",
          "type": "uint256"
        }
      ],
      "name": "safeTransferFrom",
      "outputs": [],
      "stateMutability": "nonpayable",
      "type": "function"
    },
    {
      "inputs": [
        {
          "internalType": "address",
          "name": "from",
          "type": "address"
        },
        {
          "internalType": "address",
          "name": "to",
          "type": "address"
        },
        {
          "internalType": "uint256",
          "name": "tokenId",
          "type": "uint256"
        },
        {
          "internalType": "bytes",
          "name": "data",
          "type": "bytes"
        }
      ],
      "name": "safeTransferFrom",
      "outputs": [],
      "stateMutability": "nonpayable",
      "type": "function"
    },
    {
      "inputs": [
        {
          "internalType": "address",
          "name": "operator",
          "type": "address"
        },
        {
          "internalType": "bool",
          "name": "approved",
          "type": "bool"
        }
      ],
      "name": "setApprovalForAll",
      "outputs": [],
      "stateMutability": "nonpayable",
      "type": "function"
    },
    {
      "inputs": [
        {
          "internalType": "bytes4",
          "name": "interfaceId",
          "type": "bytes4"
        }
      ],
      "name": "supportsInterface",
      "outputs": [
        {
          "internalType": "bool",
          "name": "",
          "type": "bool"
        }
      ],
      "stateMutability": "view",
      "type": "function"
    },
    {
      "inputs": [],
      "name": "symbol",
      "outputs": [
        {
          "internalType": "string",
          "name": "",
          "type": "string"
        }
      ],
      "stateMutability": "view",
      "type": "function"
    },
    {
      "inputs": [
        {
          "internalType": "uint256",
          "name": "tokenId",
          "type": "uint256"
        }
      ],
      "name": "tokenURI",
      "outputs": [
        {
          "internalType": "string",
          "name": "",
          "type": "string"
        }
      ],
      "stateMutability": "view",
      "type": "function"
    },
    {
      "inputs": [
        {
          "internalType": "address",
          "name": "from",
          "type": "address"
        },
        {
          "internalType": "address",
          "name": "to",
          "type": "address"
        },
        {
          "internalType": "uint256",
          "name": "tokenId",
          "type": "uint256"
        }
      ],
      "name": "transferFrom",
      "outputs": [],
      "stateMutability": "nonpayable",
      "type": "function"
    }
  ],
  "bytecode": "0x60806040523480156200001157600080fd5b506040518060400160405280600981526020016814dbd8da585b13919560ba1b8152506040518060400160405280600481526020016314d3919560e21b81525081600090816200006291906200011f565b5060016200007182826200011f565b505050620001eb565b634e487b7160e01b600052604160045260246000fd5b600181811c90821680620000a557607f821691505b602082108103620000c657634e487b7160e01b600052602260045260246000fd5b50919050565b601f8211156200011a57600081815260208120601f850160051c81016020861015620000f55750805b601f850160051c820191505b81811015620001165782815560010162000101565b5050505b505050565b81516001600160401b038111156200013b576200013b6200007a565b62000153816200014c845462000090565b84620000cc565b602080601f8311600181146200018b5760008415620001725750858301515b600019600386901b1c1916600185901b17855562000116565b600085815260208120601f198616915b82811015620001bc578886015182559484019460019091019084016200019b565b5085821015620001db5787850151600019600388901b60f8161c191681555b5050505050600190811b01905550565b6118f680620001fb6000396000f3fe608060405234801561001057600080fd5b50600436106101005760003560e01c80636352211e11610097578063a22cb46511610066578063a22cb4651461023a578063b88d4fde1461024d578063c87b56dd14610260578063e985e9c51461027357600080fd5b80636352211e146101eb578063639bee54146101fe57806370a082311461021f57806395d89b411461023257600080fd5b80630b1e7f83116100d35780630b1e7f831461018257806323b872dd146101a557806340731c24146101b857806342842e0e146101d857600080fd5b806301ffc9a71461010557806306fdde031461012d578063081812fc14610142578063095ea7b31461016d575b600080fd5b610118610113366004611226565b6102af565b60405190151581526020015b60405180910390f35b610135610301565b6040516101249190611293565b6101556101503660046112a6565b610393565b6040516001600160a01b039091168152602001610124565b61018061017b3660046112db565b6103ba565b005b6101956101903660046112a6565b6104d4565b6040516101249493929190611305565b6101806101b336600461134b565b61061a565b6101cb6101c63660046112a6565b61064b565b6040516101249190611387565b6101806101e636600461134b565b6107e3565b6101556101f93660046112a6565b6107fe565b61021161020c366004611491565b61085e565b604051908152602001610124565b61021161022d366004611505565b610915565b61013561099b565b610180610248366004611520565b6109aa565b61018061025b36600461155c565b6109b9565b61013561026e3660046112a6565b6109f1565b6101186102813660046115d8565b6001600160a01b03918216600090815260056020908152604080832093909416825291909152205460ff1690565b60006001600160e01b031982166380ac58cd60e01b14806102e057506001600160e01b03198216635b5e139f60e01b145b806102fb57506301ffc9a760e01b6001600160e01b03198316145b92915050565b6060600080546103109061160b565b80601f016020809104026020016040519081016040528092919081815260200182805461033c9061160b565b80156103895780601f1061035e57610100808354040283529160200191610389565b820191906000526020600020905b81548152906001019060200180831161036c57829003601f168201915b5050505050905090565b600061039e82610a65565b506000908152600460205260409020546001600160a01b031690565b60006103c5826107fe565b9050806001600160a01b0316836001600160a01b0316036104375760405162461bcd60e51b815260206004820152602160248201527f4552433732313a20617070726f76616c20746f2063757272656e74206f776e656044820152603960f91b60648201526084015b60405180910390fd5b336001600160a01b038216148061045357506104538133610281565b6104c55760405162461bcd60e51b815260206004820152603d60248201527f4552433732313a20617070726f76652063616c6c6572206973206e6f7420746f60448201527f6b656e206f776e6572206f7220617070726f76656420666f7220616c6c000000606482015260840161042e565b6104cf8383610ac7565b505050565b6007602052600090815260409020805481906104ef9061160b565b80601f016020809104026020016040519081016040528092919081815260200182805461051b9061160b565b80156105685780601f1061053d57610100808354040283529160200191610568565b820191906000526020600020905b81548152906001019060200180831161054b57829003601f168201915b505050506001830154600284015460038501805494956001600160a01b0390931694919350906105979061160b565b80601f01602080910402602001604051908101604052809291908181526020018280546105c39061160b565b80156106105780601f106105e557610100808354040283529160200191610610565b820191906000526020600020905b8154815290600101906020018083116105f357829003601f168201915b5050505050905084565b6106243382610b35565b6106405760405162461bcd60e51b815260040161042e90611645565b6104cf838383610bb4565b61067f60405180608001604052806060815260200160006001600160a01b0316815260200160008152602001606081525090565b600082815260076020526040908190208151608081019092528054829082906106a79061160b565b80601f01602080910402602001604051908101604052809291908181526020018280546106d39061160b565b80156107205780601f106106f557610100808354040283529160200191610720565b820191906000526020600020905b81548152906001019060200180831161070357829003601f168201915b505050918352505060018201546001600160a01b031660208201526002820154604082015260038201805460609092019161075a9061160b565b80601f01602080910402602001604051908101604052809291908181526020018280546107869061160b565b80156107d35780601f106107a8576101008083540402835291602001916107d3565b820191906000526020600020905b8154815290600101906020018083116107b657829003601f168201915b5050505050815250509050919050565b6104cf838383604051806020016040528060008152506109b9565b6000818152600260205260408120546001600160a01b0316806102fb5760405162461bcd60e51b8152602060048201526018602482015277115490cdcc8c4e881a5b9d985b1a59081d1bdad95b88125160421b604482015260640161042e565b600061086e600680546001019055565b600061087960065490565b90506108858582610d18565b60408051608081018252858152336020808301919091524282840152606082018690526000848152600790915291909120815181906108c490826116e0565b5060208201516001820180546001600160a01b0319166001600160a01b03909216919091179055604082015160028201556060820151600382019061090990826116e0565b50919695505050505050565b60006001600160a01b03821661097f5760405162461bcd60e51b815260206004820152602960248201527f4552433732313a2061646472657373207a65726f206973206e6f7420612076616044820152683634b21037bbb732b960b91b606482015260840161042e565b506001600160a01b031660009081526003602052604090205490565b6060600180546103109061160b565b6109b5338383610ea3565b5050565b6109c33383610b35565b6109df5760405162461bcd60e51b815260040161042e90611645565b6109eb84848484610f71565b50505050565b60606109fc82610a65565b6000610a1360408051602081019091526000815290565b90506000815111610a335760405180602001604052806000815250610a5e565b80610a3d84610fa4565b604051602001610a4e9291906117a0565b6040516020818303038152906040525b9392505050565b6000818152600260205260409020546001600160a01b0316610ac45760405162461bcd60e51b8152602060048201526018602482015277115490cdcc8c4e881a5b9d985b1a59081d1bdad95b88125160421b604482015260640161042e565b50565b600081815260046020526040902080546001600160a01b0319166001600160a01b0384169081179091558190610afc826107fe565b6001600160a01b03167f8c5be1e5ebec7d5bd14f71427d1e84f3dd0314c0f7b2291e5b200ac8c7c3b92560405160405180910390a45050565b600080610b41836107fe565b9050806001600160a01b0316846001600160a01b03161480610b8857506001600160a01b0380821660009081526005602090815260408083209388168352929052205460ff165b80610bac5750836001600160a01b0316610ba184610393565b6001600160a01b0316145b949350505050565b826001600160a01b0316610bc7826107fe565b6001600160a01b031614610bed5760405162461bcd60e51b815260040161042e906117cf565b6001600160a01b038216610c4f5760405162461bcd60e51b8152602060048201526024808201527f4552433732313a207472616e7366657220746f20746865207a65726f206164646044820152637265737360e01b606482015260840161042e565b826001600160a01b0316610c62826107fe565b6001600160a01b031614610c885760405162461bcd60e51b815260040161042e906117cf565b600081815260046020908152604080832080546001600160a01b03199081169091556001600160a01b0387811680865260038552838620805460001901905590871680865283862080546001019055868652600290945282852080549092168417909155905184937fddf252ad1be2c89b69c2b068fc378daa952ba7f163c4a11628f55a4df523b3ef91a4505050565b6001600160a01b038216610d6e5760405162461bcd60e51b815260206004820181905260248201527f4552433732313a206d696e7420746f20746865207a65726f2061646472657373604482015260640161042e565b6000818152600260205260409020546001600160a01b031615610dd35760405162461bcd60e51b815260206004820152601c60248201527f4552433732313a20746f6b656e20616c7265616479206d696e74656400000000604482015260640161042e565b6000818152600260205260409020546001600160a01b031615610e385760405162461bcd60e51b815260206004820152601c60248201527f4552433732313a20746f6b656e20616c7265616479206d696e74656400000000604482015260640161042e565b6001600160a01b038216600081815260036020908152604080832080546001019055848352600290915280822080546001600160a01b0319168417905551839291907fddf252ad1be2c89b69c2b068fc378daa952ba7f163c4a11628f55a4df523b3ef908290a45050565b816001600160a01b0316836001600160a01b031603610f045760405162461bcd60e51b815260206004820152601960248201527f4552433732313a20617070726f766520746f2063616c6c657200000000000000604482015260640161042e565b6001600160a01b03838116600081815260056020908152604080832094871680845294825291829020805460ff191686151590811790915591519182527f17307eab39ab6107e8899845ad3d59bd9653f200f220920489ca2b5937696c31910160405180910390a3505050565b610f7c848484610bb4565b610f8884848484611037565b6109eb5760405162461bcd60e51b815260040161042e90611814565b60606000610fb183611138565b600101905060008167ffffffffffffffff811115610fd157610fd16113e5565b6040519080825280601f01601f191660200182016040528015610ffb576020820181803683370190505b5090508181016020015b600019016f181899199a1a9b1b9c1cb0b131b232b360811b600a86061a8153600a850494508461100557509392505050565b60006001600160a01b0384163b1561112d57604051630a85bd0160e11b81526001600160a01b0385169063150b7a029061107b903390899088908890600401611866565b6020604051808303816000875af19250505080156110b6575060408051601f3d908101601f191682019092526110b3918101906118a3565b60015b611113573d8080156110e4576040519150601f19603f3d011682016040523d82523d6000602084013e6110e9565b606091505b50805160000361110b5760405162461bcd60e51b815260040161042e90611814565b805181602001fd5b6001600160e01b031916630a85bd0160e11b149050610bac565b506001949350505050565b60008072184f03e93ff9f4daa797ed6e38ed64bf6a1f0160401b83106111775772184f03e93ff9f4daa797ed6e38ed64bf6a1f0160401b830492506040015b6d04ee2d6d415b85acef810000000083106111a3576d04ee2d6d415b85acef8100000000830492506020015b662386f26fc1000083106111c157662386f26fc10000830492506010015b6305f5e10083106111d9576305f5e100830492506008015b61271083106111ed57612710830492506004015b606483106111ff576064830492506002015b600a83106102fb5760010192915050565b6001600160e01b031981168114610ac457600080fd5b60006020828403121561123857600080fd5b8135610a5e81611210565b60005b8381101561125e578181015183820152602001611246565b50506000910152565b6000815180845261127f816020860160208601611243565b601f01601f19169290920160200192915050565b602081526000610a5e6020830184611267565b6000602082840312156112b857600080fd5b5035919050565b80356001600160a01b03811681146112d657600080fd5b919050565b600080604083850312156112ee57600080fd5b6112f7836112bf565b946020939093013593505050565b6080815260006113186080830187611267565b6001600160a01b03861660208401526040830185905282810360608401526113408185611267565b979650505050505050565b60008060006060848603121561136057600080fd5b611369846112bf565b9250611377602085016112bf565b9150604084013590509250925092565b6020815260008251608060208401526113a360a0840182611267565b905060018060a01b036020850151166040840152604084015160608401526060840151601f198483030160808501526113dc8282611267565b95945050505050565b634e487b7160e01b600052604160045260246000fd5b600067ffffffffffffffff80841115611416576114166113e5565b604051601f8501601f19908116603f0116810190828211818310171561143e5761143e6113e5565b8160405280935085815286868601111561145757600080fd5b858560208301376000602087830101525050509392505050565b600082601f83011261148257600080fd5b610a5e838335602085016113fb565b6000806000606084860312156114a657600080fd5b6114af846112bf565b9250602084013567ffffffffffffffff808211156114cc57600080fd5b6114d887838801611471565b935060408601359150808211156114ee57600080fd5b506114fb86828701611471565b9150509250925092565b60006020828403121561151757600080fd5b610a5e826112bf565b6000806040838503121561153357600080fd5b61153c836112bf565b91506020830135801515811461155157600080fd5b809150509250929050565b6000806000806080858703121561157257600080fd5b61157b856112bf565b9350611589602086016112bf565b925060408501359150606085013567ffffffffffffffff8111156115ac57600080fd5b8501601f810187136115bd57600080fd5b6115cc878235602084016113fb565b91505092959194509250565b600080604083850312156115eb57600080fd5b6115f4836112bf565b9150611602602084016112bf565b90509250929050565b600181811c9082168061161f57607f821691505b60208210810361163f57634e487b7160e01b600052602260045260246000fd5b50919050565b6020808252602d908201527f4552433732313a2063616c6c6572206973206e6f7420746f6b656e206f776e6560408201526c1c881bdc88185c1c1c9bdd9959609a1b606082015260800190565b601f8211156104cf57600081815260208120601f850160051c810160208610156116b95750805b601f850160051c820191505b818110156116d8578281556001016116c5565b505050505050565b815167ffffffffffffffff8111156116fa576116fa6113e5565b61170e81611708845461160b565b84611692565b602080601f831160018114611743576000841561172b5750858301515b600019600386901b1c1916600185901b1785556116d8565b600085815260208120601f198616915b8281101561177257888601518255948401946001909101908401611753565b50858210156117905787850151600019600388901b60f8161c191681555b5050505050600190811b01905550565b600083516117b2818460208801611243565b8351908301906117c6818360208801611243565b01949350505050565b60208082526025908201527f4552433732313a207472616e736665722066726f6d20696e636f72726563742060408201526437bbb732b960d91b606082015260800190565b60208082526032908201527f4552433732313a207472616e7366657220746f206e6f6e20455243373231526560408201527131b2b4bb32b91034b6b83632b6b2b73a32b960711b606082015260800190565b6001600160a01b038581168252841660208201526040810183905260806060820181905260009061189990830184611267565b9695505050505050565b6000602082840312156118b557600080fd5b8151610a5e8161121056fea26469706673582212202657f30a1275c7614e9699612fe0ce8041475808ed9e864b75abe689aa0c74eb64736f6c63430008140033",
  "linkReferences": {},
  "deployedLinkReferences": {}
}