{
  "_format": "hh-sol-artifact-1",
  "contractName": "SocialNFT",
  "sourceName": "contracts/PostNFT.sol",
  "abi": [
    {
      "inputs": [],
      "stateMutability": "nonpayable",
      "type": "constructor"
    },
    {
      "anonymous": false,
      "inputs": [
        {
          "indexed": true,
          "internalType": "address",
          "name": "owner",
          "type": "address"
        },
        {
          "indexed": true,
          "internalType": "address",
          "name": "approved",
          "type": "address"
        },
        {
          "indexed": true,
          "internalType": "uint256",
          "name": "tokenId",
          "type": "uint256"
        }
      ],
      "name": "Approval",
      "type": "event"
    },
    {
      "anonymous": false,
      "inputs": [
        {
          "indexed": true,
          "internalType": "address",
          "name": "owner",
          "type": "address"
        },
        {
          "indexed": true,
          "internalType": "address",
          "name": "operator",
          "type": "address"
        },
        {
          "indexed": false,
          "internalType": "bool",
          "name": "approved",
          "type": "bool"
        }
      ],
      "name": "ApprovalForAll",
      "type": "event"
    },
    {
      "anonymous": false,
      "inputs": [
        {
          "indexed": true,
          "internalType": "address",
          "name": "from",
          "type": "address"
        },
        {
          "indexed": true,
          "internalType": "address",
          "name": "to",
          "type": "address"
        },
        {
          "indexed": true,
          "internalType": "uint256",
          "name": "tokenId",
          "type": "uint256"
        }
      ],
      "name": "Transfer",
      "type": "event"
    },
    {
      "inputs": [
        {
          "internalType": "address",
          "name": "to",
          "type": "address"
        },
        {
          "internalType": "uint256",
          "name": "tokenId",
          "type": "uint256"
        }
      ],
      "name": "approve",
      "outputs": [],
      "stateMutability": "nonpayable",
      "type": "function"
    },
    {
      "inputs": [
        {
          "internalType": "address",
          "name": "owner",
          "type": "address"
        }
      ],
      "name": "balanceOf",
      "outputs": [
        {
          "internalType": "uint256",
          "name": "",
          "type": "uint256"
        }
      ],
      "stateMutability": "view",
      "type": "function"
    },
    {
      "inputs": [
        {
          "internalType": "uint256",
          "name": "tokenId",
          "type": "uint256"
        }
      ],
      "name": "getApproved",
      "outputs": [
        {
          "internalType": "address",
          "name": "",
          "type": "address"
        }
      ],
      "stateMutability": "view",
      "type": "function"
    },
    {
      "inputs": [
        {
          "internalType": "uint256",
          "name": "tokenId",
          "type": "uint256"
        }
      ],
      "name": "getPost",
      "outputs": [
        {
          "components": [
            {
              "internalType": "string",
              "name": "contentHash",
              "type": "string"
            },
            {
              "internalType": "address",
              "name": "author",
              "type": "address"
            },
            {
              "internalType": "uint256",
              "name": "timestamp",
              "type": "uint256"
            },
            {
              "internalType": "string",
              "name": "metadataURI",
              "type": "string"
            }
          ],
          "internalType": "struct SocialNFT.Post",
          "name": "",
          "type": "tuple"
        }
      ],
      "stateMutability": "view",
      "type": "function"
    },
    {
      "inputs": [
        {
          "internalType": "address",
          "name": "owner",
          "type": "address"
        },
        {
          "internalType": "address",
          "name": "operator",
          "type": "address"
        }
      ],
      "name": "isApprovedForAll",
      "outputs": [
        {
          "internalType": "bool",
          "name": "",
          "type": "bool"
        }
      ],
      "stateMutability": "view",
      "type": "function"
    },
    {
      "inputs": [
        {
          "internalType": "address",
          "name": "to",
          "type": "address"
        },
        {
          "internalType": "string",
          "name": "contentHash",
          "type": "string"
        },
        {
          "internalType": "string",
          "name": "metadataURI",
          "type": "string"
        }
      ],
      "name": "mintPost",
      "outputs": [
        {
          "internalType": "uint256",
          "name": "",
          "type": "uint256"
        }
      ],
      "stateMutability": "nonpayable",
      "type": "function"
    },
    {
      "inputs": [],
      "name": "name",
      "outputs": [
        {
          "internalType": "string",
          "name": "",
          "type": "string"
        }
      ],
      "stateMutability": "view",
      "type": "function"
    },
    {
      "inputs": [
        {
          "internalType": "uint256",
          "name": "tokenId",
          "type": "uint256"
        }
      ],
      "name": "ownerOf",
      "outputs": [
        {
          "internalType": "address",
          "name": "",
          "type": "address"
        }
      ],
      "stateMutability": "view",
      "type": "function"
    },
    {
      "inputs": [
        {
          "internalType": "uint256",
          "name": "",
          "type": "uint256"
        }
      ],
      "name": "posts",
      "outputs": [
        {
          "internalType": "string",
          "name": "contentHash",
          "type": "string"
        },
        {
          "internalType": "address",
          "name": "author",
          "type": "address"
        },
        {
          "internalType": "uint256",
          "name": "timestamp",
          "type": "uint256"
        },
        {
          "internalType": "string",
          "name": "metadataURI",
          "type": "string"
        }
      ],
      "stateMutability": "view",
      "type": "function"
    },
    {
      "inputs": [
        {
          "internalType": "address",
          "name": "from",
          "type": "address"
        },
        {
          "internalType": "address",
          "name": "to",
          "type": "address"
        },
        {
          "internalType": "uint256",
          "name": "tokenId",
          "type": "uint256"
        }
      ],
      "name": "safeTransferFrom",
      "outputs": [],
      "stateMutability": "nonpayable",
      "type": "function"
    },
    {
      "inputs": [
        {
          "internalType": "address",
          "name": "from",
          "type": "address"
        },
        {
          "internalType": "address",
          "name": "to",
          "type": "address"
        },
        {
          "internalType": "uint256",
          "name": "tokenId",
          "type": "uint256"
        },
        {
          "internalType": "bytes",
          "name": "data",
          "type": "bytes"
        }
      ],
      "name": "safeTransferFrom",
      "outputs": [],
      "stateMutability": "nonpayable",
      "type": "function"
    },
    {
      "inputs": [
        {
          "internalType": "address",
          "name": "operator",
          "type": "address"
        },
        {
          "internalType": "bool",
          "name": "approved",
          "type": "bool"
        }
      ],
      "name": "setApprovalForAll",
      "outputs": [],
      "stateMutability": "nonpayable",
      "type": "function"
    },
    {
      "inputs": [
        {
          "internalType": "bytes4",
          "name": "interfaceId",
          "type": "bytes4"
        }
      ],
      "name": "supportsInterface",
      "outputs": [
        {
          "internalType": "bool",
          "name": "",
          "type": "bool"
        }
      ],
      "stateMutability": "view",
      "type": "function"
    },
    {
      "inputs": [],
      "name": "symbol",
      "outputs": [
        {
          "internalType": "string",
          "name": "",
          "type": "string"
        }
      ],
      "stateMutability": "view",
      "type": "function"
    },
    {
      "inputs": [
        {
          "internalType": "uint256",
          "name": "tokenId",
          "type": "uint256"
        }
      ],
      "name": "tokenURI",
      "outputs": [
        {
          "internalType": "string",
          "name": "",
          "type": "string"
        }
      ],
      "stateMutability": "view",
      "type": "function"
    },
    {
      "inputs": [
        {
          "internalType": "address",
          "name": "from",
          "type": "address"
        },
        {
          "internalType": "address",
          "name": "to",
          "type": "address"
        },
        {
          "internalType": "uint256",
          "name": "tokenId",
          "type": "uint256"
        }
      ],
      "name": "transferFrom",
      "outputs": [],
      "stateMutability": "nonpayable",
      "type": "function"
    }
  ],
  "bytecode": "0x608060405234801561001057600080fd5b506040518060400160405280600981526020017f536f6369616c4e465400000000000000000000000000000000000000000000008152506040518060400160405280600481526020017f534e465400000000000000000000000000000000000000000000000000000000815250816000908161008c91906102f4565b50806001908161009c91906102f4565b5050506103c6565b600081519050919050565b7f4e487b7100000000000000000000000000000000000000000000000000000000600052604160045260246000fd5b7f4e487b7100000000000000000000000000000000000000000000000000000000600052602260045260246000fd5b6000600282049050600182168061012557607f821691505b602082108103610138576101376100de565b5b50919050565b60008190508160005260206000209050919050565b60006020601f8301049050919050565b600082821b905092915050565b6000600883026101a07fffffffffffffffffffffffffffffffffffffffffffffffffffffffffffffffff82610163565b6101aa8683610163565b95508019841693508086168417925050509392505050565b6000819050919050565b6000819050919050565b60006101f16101ec6101e7846101c2565b6101cc565b6101c2565b9050919050565b6000819050919050565b61020b836101d6565b61021f610217826101f8565b848454610170565b825550505050565b600090565b610234610227565b61023f818484610202565b505050565b5b818110156102635761025860008261022c565b600181019050610245565b5050565b601f8211156102a8576102798161013e565b61028284610153565b81016020851015610291578190505b6102a561029d85610153565b830182610244565b50505b505050565b600082821c905092915050565b60006102cb600019846008026102ad565b1980831691505092915050565b60006102e483836102ba565b9150826002028217905092915050565b6102fd826100a4565b67ffffffffffffffff811115610316576103156100af565b5b610320825461010d565b61032b828285610267565b600060209050601f83116001811461035e576000841561034c578287015190505b61035685826102d8565b8655506103be565b601f19841661036c8661013e565b60005b828110156103945784890151825560018201915060208501945060208101905061036f565b868310156103b157848901516103ad601f8916826102ba565b8355505b6001600288020188555050505b505050505050565b612e36806103d56000396000f3fe608060405234801561001057600080fd5b50600436106101005760003560e01c80636352211e11610097578063a22cb46511610066578063a22cb465146102e8578063b88d4fde14610304578063c87b56dd14610320578063e985e9c51461035057610100565b80636352211e1461023a578063639bee541461026a57806370a082311461029a57806395d89b41146102ca57610100565b80630b1e7f83116100d35780630b1e7f831461019f57806323b872dd146101d257806340731c24146101ee57806342842e0e1461021e57610100565b806301ffc9a71461010557806306fdde0314610135578063081812fc14610153578063095ea7b314610183575b600080fd5b61011f600480360381019061011a9190611c41565b610380565b60405161012c9190611c89565b60405180910390f35b61013d610462565b60405161014a9190611d34565b60405180910390f35b61016d60048036038101906101689190611d8c565b6104f4565b60405161017a9190611dfa565b60405180910390f35b61019d60048036038101906101989190611e41565b61053a565b005b6101b960048036038101906101b49190611d8c565b610651565b6040516101c99493929190611e90565b60405180910390f35b6101ec60048036038101906101e79190611ee3565b6107b1565b005b61020860048036038101906102039190611d8c565b610811565b6040516102159190612008565b60405180910390f35b61023860048036038101906102339190611ee3565b6109c2565b005b610254600480360381019061024f9190611d8c565b6109e2565b6040516102619190611dfa565b60405180910390f35b610284600480360381019061027f919061215f565b610a68565b60405161029191906121ea565b60405180910390f35b6102b460048036038101906102af9190612205565b610b61565b6040516102c191906121ea565b60405180910390f35b6102d2610c18565b6040516102df9190611d34565b60405180910390f35b61030260048036038101906102fd919061225e565b610caa565b005b61031e6004803603810190610319919061233f565b610cc0565b005b61033a60048036038101906103359190611d8c565b610d22565b6040516103479190611d34565b60405180910390f35b61036a600480360381019061036591906123c2565b610d8a565b6040516103779190611c89565b60405180910390f35b60007f80ac58cd000000000000000000000000000000000000000000000000000000007bffffffffffffffffffffffffffffffffffffffffffffffffffffffff1916827bffffffffffffffffffffffffffffffffffffffffffffffffffffffff1916148061044b57507f5b5e139f000000000000000000000000000000000000000000000000000000007bffffffffffffffffffffffffffffffffffffffffffffffffffffffff1916827bffffffffffffffffffffffffffffffffffffffffffffffffffffffff1916145b8061045b575061045a82610e1e565b5b9050919050565b60606000805461047190612431565b80601f016020809104026020016040519081016040528092919081815260200182805461049d90612431565b80156104ea5780601f106104bf576101008083540402835291602001916104ea565b820191906000526020600020905b8154815290600101906020018083116104cd57829003601f168201915b5050505050905090565b60006104ff82610e88565b6004600083815260200190815260200160002060009054906101000a900473ffffffffffffffffffffffffffffffffffffffff169050919050565b6000610545826109e2565b90508073ffffffffffffffffffffffffffffffffffffffff168373ffffffffffffffffffffffffffffffffffffffff16036105b5576040517f08c379a00000000000000000000000000000000000000000000000000000000081526004016105ac906124d4565b60405180910390fd5b8073ffffffffffffffffffffffffffffffffffffffff166105d4610ed3565b73ffffffffffffffffffffffffffffffffffffffff1614806106035750610602816105fd610ed3565b610d8a565b5b610642576040517f08c379a000000000000000000000000000000000000000000000000000000000815260040161063990612566565b60405180910390fd5b61064c8383610edb565b505050565b600760205280600052604060002060009150905080600001805461067490612431565b80601f01602080910402602001604051908101604052809291908181526020018280546106a090612431565b80156106ed5780601f106106c2576101008083540402835291602001916106ed565b820191906000526020600020905b8154815290600101906020018083116106d057829003601f168201915b5050505050908060010160009054906101000a900473ffffffffffffffffffffffffffffffffffffffff169080600201549080600301805461072e90612431565b80601f016020809104026020016040519081016040528092919081815260200182805461075a90612431565b80156107a75780601f1061077c576101008083540402835291602001916107a7565b820191906000526020600020905b81548152906001019060200180831161078a57829003601f168201915b5050505050905084565b6107c26107bc610ed3565b82610f94565b610801576040517f08c379a00000000000000000000000000000000000000000000000000000000081526004016107f8906125f8565b60405180910390fd5b61080c838383611029565b505050565b610819611b97565b6007600083815260200190815260200160002060405180608001604052908160008201805461084790612431565b80601f016020809104026020016040519081016040528092919081815260200182805461087390612431565b80156108c05780601f10610895576101008083540402835291602001916108c0565b820191906000526020600020905b8154815290600101906020018083116108a357829003601f168201915b505050505081526020016001820160009054906101000a900473ffffffffffffffffffffffffffffffffffffffff1673ffffffffffffffffffffffffffffffffffffffff1673ffffffffffffffffffffffffffffffffffffffff1681526020016002820154815260200160038201805461093990612431565b80601f016020809104026020016040519081016040528092919081815260200182805461096590612431565b80156109b25780601f10610987576101008083540402835291602001916109b2565b820191906000526020600020905b81548152906001019060200180831161099557829003601f168201915b5050505050815250509050919050565b6109dd83838360405180602001604052806000815250610cc0565b505050565b6000806109ee83611322565b9050600073ffffffffffffffffffffffffffffffffffffffff168173ffffffffffffffffffffffffffffffffffffffff1603610a5f576040517f08c379a0000000000000000000000000000000000000000000000000000000008152600401610a5690612664565b60405180910390fd5b80915050919050565b6000610a74600661135f565b6000610a806006611375565b9050610a8c8582611383565b60405180608001604052808581526020013373ffffffffffffffffffffffffffffffffffffffff16815260200142815260200184815250600760008381526020019081526020016000206000820151816000019081610aeb9190612830565b5060208201518160010160006101000a81548173ffffffffffffffffffffffffffffffffffffffff021916908373ffffffffffffffffffffffffffffffffffffffff160217905550604082015181600201556060820151816003019081610b529190612830565b50905050809150509392505050565b60008073ffffffffffffffffffffffffffffffffffffffff168273ffffffffffffffffffffffffffffffffffffffff1603610bd1576040517f08c379a0000000000000000000000000000000000000000000000000000000008152600401610bc890612974565b60405180910390fd5b600360008373ffffffffffffffffffffffffffffffffffffffff1673ffffffffffffffffffffffffffffffffffffffff168152602001908152602001600020549050919050565b606060018054610c2790612431565b80601f0160208091040260200160405190810160405280929190818152602001828054610c5390612431565b8015610ca05780601f10610c7557610100808354040283529160200191610ca0565b820191906000526020600020905b815481529060010190602001808311610c8357829003601f168201915b5050505050905090565b610cbc610cb5610ed3565b83836115a0565b5050565b610cd1610ccb610ed3565b83610f94565b610d10576040517f08c379a0000000000000000000000000000000000000000000000000000000008152600401610d07906125f8565b60405180910390fd5b610d1c8484848461170c565b50505050565b6060610d2d82610e88565b6000610d37611768565b90506000815111610d575760405180602001604052806000815250610d82565b80610d618461177f565b604051602001610d729291906129d0565b6040516020818303038152906040525b915050919050565b6000600560008473ffffffffffffffffffffffffffffffffffffffff1673ffffffffffffffffffffffffffffffffffffffff16815260200190815260200160002060008373ffffffffffffffffffffffffffffffffffffffff1673ffffffffffffffffffffffffffffffffffffffff16815260200190815260200160002060009054906101000a900460ff16905092915050565b60007f01ffc9a7000000000000000000000000000000000000000000000000000000007bffffffffffffffffffffffffffffffffffffffffffffffffffffffff1916827bffffffffffffffffffffffffffffffffffffffffffffffffffffffff1916149050919050565b610e918161184d565b610ed0576040517f08c379a0000000000000000000000000000000000000000000000000000000008152600401610ec790612664565b60405180910390fd5b50565b600033905090565b816004600083815260200190815260200160002060006101000a81548173ffffffffffffffffffffffffffffffffffffffff021916908373ffffffffffffffffffffffffffffffffffffffff160217905550808273ffffffffffffffffffffffffffffffffffffffff16610f4e836109e2565b73ffffffffffffffffffffffffffffffffffffffff167f8c5be1e5ebec7d5bd14f71427d1e84f3dd0314c0f7b2291e5b200ac8c7c3b92560405160405180910390a45050565b600080610fa0836109e2565b90508073ffffffffffffffffffffffffffffffffffffffff168473ffffffffffffffffffffffffffffffffffffffff161480610fe25750610fe18185610d8a565b5b8061102057508373ffffffffffffffffffffffffffffffffffffffff16611008846104f4565b73ffffffffffffffffffffffffffffffffffffffff16145b91505092915050565b8273ffffffffffffffffffffffffffffffffffffffff16611049826109e2565b73ffffffffffffffffffffffffffffffffffffffff161461109f576040517f08c379a000000000000000000000000000000000000000000000000000000000815260040161109690612a66565b60405180910390fd5b600073ffffffffffffffffffffffffffffffffffffffff168273ffffffffffffffffffffffffffffffffffffffff160361110e576040517f08c379a000000000000000000000000000000000000000000000000000000000815260040161110590612af8565b60405180910390fd5b61111b838383600161188e565b8273ffffffffffffffffffffffffffffffffffffffff1661113b826109e2565b73ffffffffffffffffffffffffffffffffffffffff1614611191576040517f08c379a000000000000000000000000000000000000000000000000000000000815260040161118890612a66565b60405180910390fd5b6004600082815260200190815260200160002060006101000a81549073ffffffffffffffffffffffffffffffffffffffff02191690556001600360008573ffffffffffffffffffffffffffffffffffffffff1673ffffffffffffffffffffffffffffffffffffffff168152602001908152602001600020600082825403925050819055506001600360008473ffffffffffffffffffffffffffffffffffffffff1673ffffffffffffffffffffffffffffffffffffffff16815260200190815260200160002060008282540192505081905550816002600083815260200190815260200160002060006101000a81548173ffffffffffffffffffffffffffffffffffffffff021916908373ffffffffffffffffffffffffffffffffffffffff160217905550808273ffffffffffffffffffffffffffffffffffffffff168473ffffffffffffffffffffffffffffffffffffffff167fddf252ad1be2c89b69c2b068fc378daa952ba7f163c4a11628f55a4df523b3ef60405160405180910390a461131d8383836001611894565b505050565b60006002600083815260200190815260200160002060009054906101000a900473ffffffffffffffffffffffffffffffffffffffff169050919050565b6001816000016000828254019250508190555050565b600081600001549050919050565b600073ffffffffffffffffffffffffffffffffffffffff168273ffffffffffffffffffffffffffffffffffffffff16036113f2576040517f08c379a00000000000000000000000000000000000000000000000000000000081526004016113e990612b64565b60405180910390fd5b6113fb8161184d565b1561143b576040517f08c379a000000000000000000000000000000000000000000000000000000000815260040161143290612bd0565b60405180910390fd5b61144960008383600161188e565b6114528161184d565b15611492576040517f08c379a000000000000000000000000000000000000000000000000000000000815260040161148990612bd0565b60405180910390fd5b6001600360008473ffffffffffffffffffffffffffffffffffffffff1673ffffffffffffffffffffffffffffffffffffffff16815260200190815260200160002060008282540192505081905550816002600083815260200190815260200160002060006101000a81548173ffffffffffffffffffffffffffffffffffffffff021916908373ffffffffffffffffffffffffffffffffffffffff160217905550808273ffffffffffffffffffffffffffffffffffffffff16600073ffffffffffffffffffffffffffffffffffffffff167fddf252ad1be2c89b69c2b068fc378daa952ba7f163c4a11628f55a4df523b3ef60405160405180910390a461159c600083836001611894565b5050565b8173ffffffffffffffffffffffffffffffffffffffff168373ffffffffffffffffffffffffffffffffffffffff160361160e576040517f08c379a000000000000000000000000000000000000000000000000000000000815260040161160590612c3c565b60405180910390fd5b80600560008573ffffffffffffffffffffffffffffffffffffffff1673ffffffffffffffffffffffffffffffffffffffff16815260200190815260200160002060008473ffffffffffffffffffffffffffffffffffffffff1673ffffffffffffffffffffffffffffffffffffffff16815260200190815260200160002060006101000a81548160ff0219169083151502179055508173ffffffffffffffffffffffffffffffffffffffff168373ffffffffffffffffffffffffffffffffffffffff167f17307eab39ab6107e8899845ad3d59bd9653f200f220920489ca2b5937696c31836040516116ff9190611c89565b60405180910390a3505050565b611717848484611029565b6117238484848461189a565b611762576040517f08c379a000000000000000000000000000000000000000000000000000000000815260040161175990612cce565b60405180910390fd5b50505050565b606060405180602001604052806000815250905090565b60606000600161178e84611a21565b01905060008167ffffffffffffffff8111156117ad576117ac612034565b5b6040519080825280601f01601f1916602001820160405280156117df5781602001600182028036833780820191505090505b509050600082602001820190505b600115611842578080600190039150507f3031323334353637383961626364656600000000000000000000000000000000600a86061a8153600a858161183657611835612cee565b5b049450600085036117ed575b819350505050919050565b60008073ffffffffffffffffffffffffffffffffffffffff1661186f83611322565b73ffffffffffffffffffffffffffffffffffffffff1614159050919050565b50505050565b50505050565b60006118bb8473ffffffffffffffffffffffffffffffffffffffff16611b74565b15611a14578373ffffffffffffffffffffffffffffffffffffffff1663150b7a026118e4610ed3565b8786866040518563ffffffff1660e01b81526004016119069493929190612d72565b6020604051808303816000875af192505050801561194257506040513d601f19601f8201168201806040525081019061193f9190612dd3565b60015b6119c4573d8060008114611972576040519150601f19603f3d011682016040523d82523d6000602084013e611977565b606091505b5060008151036119bc576040517f08c379a00000000000000000000000000000000000000000000000000000000081526004016119b390612cce565b60405180910390fd5b805181602001fd5b63150b7a0260e01b7bffffffffffffffffffffffffffffffffffffffffffffffffffffffff1916817bffffffffffffffffffffffffffffffffffffffffffffffffffffffff191614915050611a19565b600190505b949350505050565b600080600090507a184f03e93ff9f4daa797ed6e38ed64bf6a1f0100000000000000008310611a7f577a184f03e93ff9f4daa797ed6e38ed64bf6a1f0100000000000000008381611a7557611a74612cee565b5b0492506040810190505b6d04ee2d6d415b85acef81000000008310611abc576d04ee2d6d415b85acef81000000008381611ab257611ab1612cee565b5b0492506020810190505b662386f26fc100008310611aeb57662386f26fc100008381611ae157611ae0612cee565b5b0492506010810190505b6305f5e1008310611b14576305f5e1008381611b0a57611b09612cee565b5b0492506008810190505b6127108310611b39576127108381611b2f57611b2e612cee565b5b0492506004810190505b60648310611b5c5760648381611b5257611b51612cee565b5b0492506002810190505b600a8310611b6b576001810190505b80915050919050565b6000808273ffffffffffffffffffffffffffffffffffffffff163b119050919050565b604051806080016040528060608152602001600073ffffffffffffffffffffffffffffffffffffffff16815260200160008152602001606081525090565b6000604051905090565b600080fd5b600080fd5b60007fffffffff0000000000000000000000000000000000000000000000000000000082169050919050565b611c1e81611be9565b8114611c2957600080fd5b50565b600081359050611c3b81611c15565b92915050565b600060208284031215611c5757611c56611bdf565b5b6000611c6584828501611c2c565b91505092915050565b60008115159050919050565b611c8381611c6e565b82525050565b6000602082019050611c9e6000830184611c7a565b92915050565b600081519050919050565b600082825260208201905092915050565b60005b83811015611cde578082015181840152602081019050611cc3565b60008484015250505050565b6000601f19601f8301169050919050565b6000611d0682611ca4565b611d108185611caf565b9350611d20818560208601611cc0565b611d2981611cea565b840191505092915050565b60006020820190508181036000830152611d4e8184611cfb565b905092915050565b6000819050919050565b611d6981611d56565b8114611d7457600080fd5b50565b600081359050611d8681611d60565b92915050565b600060208284031215611da257611da1611bdf565b5b6000611db084828501611d77565b91505092915050565b600073ffffffffffffffffffffffffffffffffffffffff82169050919050565b6000611de482611db9565b9050919050565b611df481611dd9565b82525050565b6000602082019050611e0f6000830184611deb565b92915050565b611e1e81611dd9565b8114611e2957600080fd5b50565b600081359050611e3b81611e15565b92915050565b60008060408385031215611e5857611e57611bdf565b5b6000611e6685828601611e2c565b9250506020611e7785828601611d77565b9150509250929050565b611e8a81611d56565b82525050565b60006080820190508181036000830152611eaa8187611cfb565b9050611eb96020830186611deb565b611ec66040830185611e81565b8181036060830152611ed88184611cfb565b905095945050505050565b600080600060608486031215611efc57611efb611bdf565b5b6000611f0a86828701611e2c565b9350506020611f1b86828701611e2c565b9250506040611f2c86828701611d77565b9150509250925092565b600082825260208201905092915050565b6000611f5282611ca4565b611f5c8185611f36565b9350611f6c818560208601611cc0565b611f7581611cea565b840191505092915050565b611f8981611dd9565b82525050565b611f9881611d56565b82525050565b60006080830160008301518482036000860152611fbb8282611f47565b9150506020830151611fd06020860182611f80565b506040830151611fe36040860182611f8f565b5060608301518482036060860152611ffb8282611f47565b9150508091505092915050565b600060208201905081810360008301526120228184611f9e565b905092915050565b600080fd5b600080fd5b7f4e487b7100000000000000000000000000000000000000000000000000000000600052604160045260246000fd5b61206c82611cea565b810181811067ffffffffffffffff8211171561208b5761208a612034565b5b80604052505050565b600061209e611bd5565b90506120aa8282612063565b919050565b600067ffffffffffffffff8211156120ca576120c9612034565b5b6120d382611cea565b9050602081019050919050565b82818337600083830152505050565b60006121026120fd846120af565b612094565b90508281526020810184848401111561211e5761211d61202f565b5b6121298482856120e0565b509392505050565b600082601f8301126121465761214561202a565b5b81356121568482602086016120ef565b91505092915050565b60008060006060848603121561217857612177611bdf565b5b600061218686828701611e2c565b935050602084013567ffffffffffffffff8111156121a7576121a6611be4565b5b6121b386828701612131565b925050604084013567ffffffffffffffff8111156121d4576121d3611be4565b5b6121e086828701612131565b9150509250925092565b60006020820190506121ff6000830184611e81565b92915050565b60006020828403121561221b5761221a611bdf565b5b600061222984828501611e2c565b91505092915050565b61223b81611c6e565b811461224657600080fd5b50565b60008135905061225881612232565b92915050565b6000806040838503121561227557612274611bdf565b5b600061228385828601611e2c565b925050602061229485828601612249565b9150509250929050565b600067ffffffffffffffff8211156122b9576122b8612034565b5b6122c282611cea565b9050602081019050919050565b60006122e26122dd8461229e565b612094565b9050828152602081018484840111156122fe576122fd61202f565b5b6123098482856120e0565b509392505050565b600082601f8301126123265761232561202a565b5b81356123368482602086016122cf565b91505092915050565b6000806000806080858703121561235957612358611bdf565b5b600061236787828801611e2c565b945050602061237887828801611e2c565b935050604061238987828801611d77565b925050606085013567ffffffffffffffff8111156123aa576123a9611be4565b5b6123b687828801612311565b91505092959194509250565b600080604083850312156123d9576123d8611bdf565b5b60006123e785828601611e2c565b92505060206123f885828601611e2c565b9150509250929050565b7f4e487b7100000000000000000000000000000000000000000000000000000000600052602260045260246000fd5b6000600282049050600182168061244957607f821691505b60208210810361245c5761245b612402565b5b50919050565b7f4552433732313a20617070726f76616c20746f2063757272656e74206f776e6560008201527f7200000000000000000000000000000000000000000000000000000000000000602082015250565b60006124be602183611caf565b91506124c982612462565b604082019050919050565b600060208201905081810360008301526124ed816124b1565b9050919050565b7f4552433732313a20617070726f76652063616c6c6572206973206e6f7420746f60008201527f6b656e206f776e6572206f7220617070726f76656420666f7220616c6c000000602082015250565b6000612550603d83611caf565b915061255b826124f4565b604082019050919050565b6000602082019050818103600083015261257f81612543565b9050919050565b7f4552433732313a2063616c6c6572206973206e6f7420746f6b656e206f776e6560008201527f72206f7220617070726f76656400000000000000000000000000000000000000602082015250565b60006125e2602d83611caf565b91506125ed82612586565b604082019050919050565b60006020820190508181036000830152612611816125d5565b9050919050565b7f4552433732313a20696e76616c696420746f6b656e2049440000000000000000600082015250565b600061264e601883611caf565b915061265982612618565b602082019050919050565b6000602082019050818103600083015261267d81612641565b9050919050565b60008190508160005260206000209050919050565b60006020601f8301049050919050565b600082821b905092915050565b6000600883026126e67fffffffffffffffffffffffffffffffffffffffffffffffffffffffffffffffff826126a9565b6126f086836126a9565b95508019841693508086168417925050509392505050565b6000819050919050565b600061272d61272861272384611d56565b612708565b611d56565b9050919050565b6000819050919050565b61274783612712565b61275b61275382612734565b8484546126b6565b825550505050565b600090565b612770612763565b61277b81848461273e565b505050565b5b8181101561279f57612794600082612768565b600181019050612781565b5050565b601f8211156127e4576127b581612684565b6127be84612699565b810160208510156127cd578190505b6127e16127d985612699565b830182612780565b50505b505050565b600082821c905092915050565b6000612807600019846008026127e9565b1980831691505092915050565b600061282083836127f6565b9150826002028217905092915050565b61283982611ca4565b67ffffffffffffffff81111561285257612851612034565b5b61285c8254612431565b6128678282856127a3565b600060209050601f83116001811461289a5760008415612888578287015190505b6128928582612814565b8655506128fa565b601f1984166128a886612684565b60005b828110156128d0578489015182556001820191506020850194506020810190506128ab565b868310156128ed57848901516128e9601f8916826127f6565b8355505b6001600288020188555050505b505050505050565b7f4552433732313a2061646472657373207a65726f206973206e6f74206120766160008201527f6c6964206f776e65720000000000000000000000000000000000000000000000602082015250565b600061295e602983611caf565b915061296982612902565b604082019050919050565b6000602082019050818103600083015261298d81612951565b9050919050565b600081905092915050565b60006129aa82611ca4565b6129b48185612994565b93506129c4818560208601611cc0565b80840191505092915050565b60006129dc828561299f565b91506129e8828461299f565b91508190509392505050565b7f4552433732313a207472616e736665722066726f6d20696e636f72726563742060008201527f6f776e6572000000000000000000000000000000000000000000000000000000602082015250565b6000612a50602583611caf565b9150612a5b826129f4565b604082019050919050565b60006020820190508181036000830152612a7f81612a43565b9050919050565b7f4552433732313a207472616e7366657220746f20746865207a65726f2061646460008201527f7265737300000000000000000000000000000000000000000000000000000000602082015250565b6000612ae2602483611caf565b9150612aed82612a86565b604082019050919050565b60006020820190508181036000830152612b1181612ad5565b9050919050565b7f4552433732313a206d696e7420746f20746865207a65726f2061646472657373600082015250565b6000612b4e602083611caf565b9150612b5982612b18565b602082019050919050565b60006020820190508181036000830152612b7d81612b41565b9050919050565b7f4552433732313a20746f6b656e20616c7265616479206d696e74656400000000600082015250565b6000612bba601c83611caf565b9150612bc582612b84565b602082019050919050565b60006020820190508181036000830152612be981612bad565b9050919050565b7f4552433732313a20617070726f766520746f2063616c6c657200000000000000600082015250565b6000612c26601983611caf565b9150612c3182612bf0565b602082019050919050565b60006020820190508181036000830152612c5581612c19565b9050919050565b7f4552433732313a207472616e7366657220746f206e6f6e20455243373231526560008201527f63656976657220696d706c656d656e7465720000000000000000000000000000602082015250565b6000612cb8603283611caf565b9150612cc382612c5c565b604082019050919050565b60006020820190508181036000830152612ce781612cab565b9050919050565b7f4e487b7100000000000000000000000000000000000000000000000000000000600052601260045260246000fd5b600081519050919050565b600082825260208201905092915050565b6000612d4482612d1d565b612d4e8185612d28565b9350612d5e818560208601611cc0565b612d6781611cea565b840191505092915050565b6000608082019050612d876000830187611deb565b612d946020830186611deb565b612da16040830185611e81565b8181036060830152612db38184612d39565b905095945050505050565b600081519050612dcd81611c15565b92915050565b600060208284031215612de957612de8611bdf565b5b6000612df784828501612dbe565b9150509291505056fea26469706673582212202d395c85db8efd8dec3a71649f5e7af91b5605f7eb1389807ce361250716abe464736f6c634300081c0033",
  "linkReferences": {},
  "deployedLinkReferences": {}
}